S0160000496E737472756D656E745F426F742E7372656351
S11300000C9472000C9493000C9493000C94930041
S11300100C9493000C9493000C9493000C94930010
S11300200C9493000C9493000C9493000C94930000
S11300300C9493000C9493000C9493000C949300F0
S11300400C9493000C9493000C9493000C949300E0
S11300500C9493000C9493000C9493000C949300D0
S11300600C9493000C9493000C9493000C949300C0
S11300700C9493000C9493000C9493000C949300B0
S11300800C9493000C9493000C9493000C949300A0
S11300900C9493000C9493000C9493000C94930090
S11300A00C9493000C9493000C9493000C94930080
S11300B00C9493000C94DA010C9493000C94930028
S11300C00C9493000C9493000C9493000C94930060
S11300D00C9493000C9493000C9493000C94930050
S11300E00C94930011241FBECFEFD1E2DEBFCDBF2D
S11300F000E00CBF1DE0A0E0B2E0E2EEF7E000E0BB
S11301000BBF02C007900D92A63EB107D9F72DE0B0
S1130110A6EEBDE001C01D92AC3EB207E1F70E941D
S11301208A020C94EF030C940000E1ECF0E01082DE
S11301308FE590E09093C5008093C400A2ECB0E0FA
S11301408C9186608C938081886180830895E0EC33
S1130150F0E0908195FFFDCF8093C6000895CF9382
S1130160DF93EC018881882331F021960E94A70057
S113017089918111FBCFDF91CF91089587B1876F6A
S113018087B988B1887088B9089586E69EE001979A
S1130190F1F700004098419880E388B9429AEFEF64
S11301A0F7E43197F1F700C000004298E6E6FEE07C
S11301B03197F1F700004098419888B9429AEFEFDF
S11301C0F7E43197F1F700C000004298E6E6FEE05C
S11301D03197F1F700004098419888B9429A8FEF1F
S11301E097E40197F1F700C000004298E6E6FEE0CC
S11301F03197F1F700004098419880E288B9429A1B
S11302008FEF97E40197F1F700C00000429808953A
S113021098B19F7098B998B1282F207F922B98B9E4
S113022040984198429AEFEFF7E43197F1F700C014
S11302300000429898B19F7098B998B18295807FD8
S1130240892B88B940984198429A8FEF97E4019797
S1130250F1F700C00000429808950E94C50086E6A8
S11302609EE00197F1F7000088E20E94080181E016
S11302700E94080186E00E9408018EE00E940801A5
S113028080E80E940801089598B19F7098B998B1C8
S1130290282F207F922B98B9409A4198429AEFEFE9
S11302A0F7E43197F1F700C00000429898B19F70CD
S11302B098B998B18295807F892B88B9409A4198E2
S11302C0429A8FEF97E40197F1F700C0000042983B
S11302D0089581E00E9408010895CF93DF93EC0113
S11302E08881882331F021960E94440189918111EB
S11302F0FBCFDF91CF910895823071F018F48130F3
S113030031F00895833069F0843081F008958FE7E7
S1130310860F0E94080108958FEB860F0E94080142
S1130320089583E9860F0E940801089583ED860FDE
S11303300E940801089556985E9A0895E1EAF0E053
S1130340108289EF8093A50083EB8093A400109220
S1130350A9001092A8001092AB001092AA0010926B
S1130360AD001092AC001092A7001092A60010925B
S1130370A0001092A20083E0808308954E9B05C0E4
S11303801092EB0D1092EA0D089581E090E09093A5
S1130390EB0D8093EA0D88EB9DE00E94AF0086EDA3
S11303A09DE00E94AF00089581B111B882B18FEF32
S11303B082B908951F920F920FB60F9211248F9352
S11303C09F938091E80D9091E90D01969093E90D2A
S11303D08093E80D9F918F910F900FBE0F901F9007
S11303E01895DF92EF92FF920F931F93CF93DF93B1
S11303F000D01F92CDB7DEB78C017B01D42E1982B9
S11304001A821B821C828091E60D9091E70D019661
S11304109093E70D8093E60DE0E0F2E00190002078
S1130420E9F73197E050F240E817F90720F4109209
S1130430E70D1092E60DF801EE0FFF1FE050FE4F9E
S11304404AE0BE016F5F7F4F808191810E94CA03A1
S113045080E5D81222C08AEB9DE00E94AF00F8012B
S1130460E053F64F8081893551F4FE0131960190B5
S11304700020E9F7319783E290E091838083B7010C
S1130480CE0101960E94AF030E94BA030E94AF00FE
S113049086ED9DE00E94AF0021C081EC9DE00E94AA
S11304A0AF00F801E053F64F8081893551F4FE0125
S11304B0319601900020E9F7319783E290E091832F
S11304C08083B701CE0101960E94AF030E94BA0354
S11304D00E94AF0086ED9DE00E94AF000F900F9048
S11304E00F900F90DF91CF911F910F91FF90EF909C
S11304F0DF900895F8940E94BE000E94D4010E94E7
S11305009B010E9495000E949E0181E080937200ED
S1130510789408950E947A020E942D010E94C500D9
S11305200E947A020E94690165E081E00E947C01D8
S11305300E94BE018AEC9DE00E946D018091EA0D4B
S11305409091EB0D0197A1F70E9469018FEC9DE05A
S11305500E946D012FEF8FEF98E021508040904072
S1130560E1F700C00000C6E0D1E080B18E3F21F485
S113057085ED9DE00E94AF0080B18D3F61F440E5C0
S113058068ED7DE08091E60D9091E70D0E94F10108
S113059080B18F3FE9F780B18B3F61F440E56AEDAC
S11305A07DE08091E60D9091E70D0E94F10180B10C
S11305B08F3FE9F780B1873F61F440E56CED7DE062
S11305C08091E60D9091E70D0E94F10180B18F3F7B
S11305D0E9F780B18F3E61F440E56EED7DE08091F6
S11305E0E60D9091E70D0E94F10180B18F3FE9F78C
S11305F080B18F3D61F440E560EE7DE08091E60DD1
S11306009091E70D0E94F10180B18F3FE9F780B12D
S11306108F3B61F440E562EE7DE08091E60D9091C0
S1130620E70D0E94F10180B18F3FE9F780B18F3768
S113063061F440E564EE7DE08091E60D9091E70D74
S11306400E94F10180B18F3FE9F788818F3F41F02B
S113065029E989E591E0215080409040E1F70000CC
S11306608881863079F444E568ED7DE08091E60D7B
S11306709091E70D0E94F1018FEF9FE80197F1F748
S113068000C000008881853079F444E56AED7DE09E
S11306908091E60D9091E70D0E94F1018FEF9FE8A4
S11306A00197F1F700C000008881833079F444E5B4
S11306B06CED7DE08091E60D9091E70D0E94F101D3
S11306C08FEF9FE80197F1F700C000008881843024
S11306D079F444E56EED7DE08091E60D9091E70DAF
S11306E00E94F1018FEF9FE80197F1F700C000002D
S11306F08881813079F444E560EE7DE08091E60DF7
S11307009091E70D0E94F1018FEF9FE80197F1F7B7
S113071000C000008881823079F444E562EE7DE017
S11307208091E60D9091E70D0E94F1018FEF9FE813
S11307300197F1F700C000008881811116CF44E5CC
S113074064EE7DE08091E60D9091E70D0E94F10149
S11307508FEF9FE80197F1F700C0000006CFFB017F
S1130760DC010D900020E9F7119701900D92002013
S1130770E1F70895DC01FC01672F71917723E1F71C
S1130780329704C07C916D9370836291AE17BF075A
S1130790C8F30895BB274A3031F4992322F4BDE20B
S11307A0909581959F4F0C94D603BB27FB01552749
S11307B0AA27880F991FAA1FA41710F0A41B8395BA
S11307C05051B9F7A05DAA3308F0A95DA193009731
S11307D079F7B111B1931192CB010C94BA03F89447
S10507E0FFCF45
S11307E204000400040004000300050005000400E2
S11307F204000400040004000400030004000500D3
S113080206000300050004000500050004000500BD
S113081205000500040005000500030005000000B2
S1130822050005000500050003000400050005009D
S1130832050005000300040004000400050005008F
S1130842020005000500050003000500050005007F
S1130852050005000500050005000500050004006B
S1130862050005000500050004000400040004005E
S11308720500040004000500040004000400040050
S11308820400040004000400040005000500000044
S11308920400080000000000000000000000000046
S11308A20000000000000000000000000000000042
S11308B20000000000000000000000000000000032
S11308C20000000000000000000000000000000022
S11308D20000000000000000000000000000000012
S1130FB24E4E4E4E594E594E4E4E5959594E4E4E14
S1130FC24E594E594E4E594E4E4E594E4E4E4E4E0F
S1130FD24E4E4E4E594E4E4E4E4E4E4E4E4E4E4E20
S1130FE24E4E4E4E594E4E594E4E594E594E4E4EEF
S1130FF24E4E4E4E4E4E4E4E594E595959594E4ED4
S1131002594E4E594E4E4E4E4E4E000000000000B8
S113101200000000000000000000000000000000CA
S113102200000000000000000000000000000000BA
S113103200000000000000000000000000000000AA
S1131042000000000000000000000000000000009A
S1131392000000000000000023005069616E6F0A23
S11313A2005472756D7065740A00426F6F74004365
S11313B26865636B00240A0043004400450046004C
S10913C247004100420057
S9030000FC
