:100000000C9472000C9493000C9493000C94930045
:100010000C9493000C9493000C9493000C94930014
:100020000C9493000C9493000C9493000C94930004
:100030000C9493000C9493000C9493000C949300F4
:100040000C9493000C9493000C9493000C949300E4
:100050000C9493000C9493000C9493000C949300D4
:100060000C9493000C9493000C9493000C949300C4
:100070000C9493000C9493000C9493000C949300B4
:100080000C9493000C9493000C9493000C949300A4
:100090000C9493000C9493000C9493000C94930094
:1000A0000C9493000C9493000C9493000C94930084
:1000B0000C9493000C94400A0C9493000C949300BD
:1000C0000C9493000C9493000C9493000C94930064
:1000D0000C9493000C9493000C9493000C94930054
:1000E0000C94930011241FBECFEFD1E2DEBFCDBF31
:1000F00000E00CBF12E0A0E0B2E0E8EFFBE100E0BE
:100100000BBF02C007900D92A83BB107D9F715E0CD
:10011000A8EBB2E001C01D92A039B107E1F70E943F
:10012000730A0C94FA0D0C940000E1ECF0E01082DC
:100130008FE590E09093C5008093C400A2ECB0E0FE
:100140008C9186608C938081886180830895E0EC37
:10015000F0E0908195FFFDCF8093C6000895CF9386
:10016000DF93EC018881882331F021960E94A7005B
:1001700089918823D9F7DF91CF91089584B1876061
:1001800084B985B1876085B9089583E58CBD1DBCB0
:100190001EBC089528980895289A08958EBD0000E1
:1001A0000DB407FEFDCF8EB508958FEF0E94CE00EF
:1001B0008EB50895FF920F931F93CF93DF93082F6F
:1001C000C42F152FD62FF72E2A9A8FEF0E94CE001C
:1001D0008FEF9FE80197F1F700C00000802F806447
:1001E0000E94CE008F2D0E94CE008D2F0E94CE0047
:1001F000812F0E94CE008C2F0E94CE00002321F080
:10020000083021F08FEF03C085E901C087E80E9424
:10021000CE002B9AC0E0D1E00E94D500182F882391
:1002200014F42197C9F7112391F40A3381F40E9441
:10023000D50086FF04C081E08093280502C010929B
:1002400028050E94D5000E94D5000E94D500812F6C
:10025000DF91CF911F910F91FF900895CF92DF9280
:10026000EF92FF92CF93DF930E94BE000E94C500E1
:10027000CAE08FEF0E94CE00C150D9F70E94CA0099
:1002800080E040E050E0BA010E94DA00CEEFD0E01A
:1002900009C080E040E050E0BA010E94DA002197F6
:1002A00009F457C08130A9F75EC088E04AEA51E0FE
:1002B00060E070E00E94DA00219729F481E08093E9
:1002C000350580E049C0813081F70E94D5000E9449
:1002D000D5000E94D5000E94D5008A3A49F482E0F8
:1002E00080933505CC24DD2476016894F6F806C0A9
:1002F00081E080933505CC24DD24760187E340E05E
:1003000050E0BA010E94DA0089E2B701A6010E941A
:10031000DA00CEEFD0E00DC087E340E050E0BA0154
:100320000E94DA0089E2B701A6010E94DA00219753
:1003300091F0882389F780913505823031F48AE382
:1003400040E050E0BA010E94DA000E94CC0081E057
:1003500003C080E001C080E0DF91CF91FF90EF907B
:10036000DF90CF90089588E04AEA51E060E070E0C5
:100370000E94DA00CEEFD0E0A6CFCF92DF92EF92CC
:10038000FF920F931F93CF93DF93EC010E94CA005B
:100390006E01EE24FF2481E1B701A6010E94DA007C
:1003A000CEEFD0E007C081E1B701A6010E94DA00DC
:1003B000219721F18823B9F7C0E0D1E002C021974D
:1003C000F9F00E94D5008E3FD1F7C8E1D3E008E1F3
:1003D00015E0FE011192E017F107E1F70E94D50048
:1003E0008993C017D107D1F70E94D5000E94D5008C
:1003F0000E94D5000E94CC0081E003C080E001C0D3
:1004000080E0DF91CF911F910F91FF90EF90DF90EF
:10041000CF900895CF92DF92EF92FF920F931F93A8
:10042000CF93DF93EC010E94CA006E01EE24FF24FB
:1004300081E1B701A6010E94DA00CEEFD0E007C04B
:1004400081E1B701A6010E94DA00219781F188239A
:10045000B9F7C0E0D1E002C0219759F10E94D50060
:100460008E3FD1F7E8E1F3E088E195E01192E817DB
:10047000F907E1F7C0E0D2E009E810E00F2EF8E854
:10048000EF2EFF24F02DF80110828FEF0E94CE0096
:100490008EB5F70180832197B1F70E94D5000E94A5
:1004A000D5000E94D5000E94CC0081E003C080E00E
:1004B00001C080E0DF91CF911F910F91FF90EF90ED
:1004C000DF90CF900895CF92DF92EF92FF920F933B
:1004D0001F93CF93DF93C82FD62F69017A018091A4
:1004E00024059091250501960E94BD018091180375
:1004F00090911903A0911A03B0911B03823522E554
:10050000920721E6A20721E4B20701F18091FC04E1
:100510009091FD04A091FE04B091FF04823722E780
:10052000920721E4A20721E6B20781F08091140529
:1005300090911505A0911605B0911705803020E027
:10054000920725E5A2072AEAB20781F5CC23A1F498
:10055000D13049F400910005109101052091020568
:100560003091030526C000910405109105052091E6
:100570000605309107051DC0D13061F4C092000519
:10058000D0920105E0920205F09203050FEF1FEFF4
:1005900098010FC0C0920405D0920505E0920605AF
:1005A000F09207050FEF1FEF980103C000E010E085
:1005B0009801602F712F822F932FDF91CF911F9180
:1005C0000F91FF90EF90DF90CF900895CF92DF9240
:1005D000EF92FF920F931F93CF93DF931092240516
:1005E00010922505109226051092270580E090E0D4
:1005F0000E94BD0180911605909117050AEA853584
:10060000900709F0D9C08091DE049091DF04AC011D
:1006100060E070E040932405509325056093260523
:10062000709327050E94BD01809118038B3E19F03D
:10063000893E09F0C3C080912303909124039093D5
:10064000E0028093DF02C0912503C0930503C090B0
:100650002603D0902703D092F002C092EF0280913F
:10066000440390914503A0914603B09147038093C2
:100670002B0590932C05A0932D05B0932E05EE2409
:10068000FF246091280370E080E090E020913C031B
:1006900030913D0340913E0350913F030E94690D0C
:1006A000DC01CB0140913403509135036091360356
:1006B000709137034C0D5D1D6E1D7F1D480F591F36
:1006C0006A1F7B1F40932F055093300560933105BF
:1006D00070933205409138035091390360913A0389
:1006E00070913B034C195D096E097F098A019B01DA
:1006F000081B190B2A0B3B0BC901B8010E94780C8F
:100700006B017C016C2F70E080E090E00E947A0C1D
:100710009B01AC0160E070E080E89FE30E94E40B85
:100720009B01AC01C701B6010E94060D0E944C0C52
:10073000DC01CB018093140390931503A09316035F
:10074000B0931703CBE9D7E0FE0119950BED17E045
:1007500080E092E0F80119958FEF9FE7A6E18150C4
:100760009040A040E1F700C0000080E061E020E0A0
:1007700030E0A9010E946302AB01BC018091140327
:1007800090911503A0911603B091170348175907CC
:100790006A077B07A8F4FE0119958DE092E0F80145
:1007A00019950FEF1FE726E1015010402040E1F7B7
:1007B00000C0000081E005C080E003C080E001C00F
:1007C00081E0DF91CF911F910F91FF90EF90DF902B
:1007D000CF9008953F924F925F926F927F928F9247
:1007E0009F92AF92BF92CF92DF92EF92FF920F93C0
:1007F0001F93CF93DF9300D00F92CDB7DEB7382E83
:1008000009831A832B833C83CB01BA01660F771FC0
:10081000881F991F660F771F881F991F8090DF021E
:100820009090E002AA24BB24C090EF02D090F00286
:10083000EE24FF2400912405109125052091260522
:100840003091270526013701400E511E621E731E8E
:10085000A50194010E949C0D69017A018B019C0104
:10086000C40CD51CE61CF71C0F2EFAE08F2EF02DC1
:10087000C6010E94BD01882311F48A94C9F7F801CA
:10088000E85EFC4F332031F40081118122813381F5
:100890003F700CC089819A81AB81BC818083918338
:1008A000A283B38301E010E020E030E0602F712FDD
:1008B000822F932F0F900F900F900F90DF91CF9179
:1008C0001F910F91FF90EF90DF90CF90BF90AF906E
:1008D0009F908F907F906F905F904F903F90089582
:1008E000EF92FF921F93CF93DF93CDB7DEB72B9795
:1008F0000FB6F894DEBF0FBECDBF7C01DC018C913A
:100900008E32F1F0F701319611E081918E3221F0B3
:100910001F5F1C30D1F702C0193078F00E949B078E
:100920008DE192E00E94DB078FEF9FE7A6E1815007
:100930009040A040E1F700C00000112329F401C05D
:1009400010E0812F90E214C0D701FE013196812F73
:10095000815022E030E02C0F3D1F280F311DC901CE
:100960002D912193E817F907D9F7183050F30AC0F1
:10097000E1E0F0E0EC0FFD1FE80FF11D90838F5FC9
:100980008830B0F31F5F88E0F701E10FF11D90811F
:10099000992319F48B3050F015C0E1E0F0E0EC0F32
:1009A000FD1FE80FF11D90831F5F0CC090E2E1E096
:1009B000F0E0EC0FFD1FE80FF11D90838F5F8B308F
:1009C000B1F703C08F5F8B30F8F2FE013196CE0194
:1009D0000C96DF012C91322F31563A3110F420520F
:1009E0002C931196A817B907A9F7D70121912D9338
:1009F0008E179F07D9F781E02B960FB6F894DEBFCC
:100A00000FBECDBFDF91CF911F91FF90EF90089562
:100A10000F931F93625070408040904020910503D7
:100A200030E040E050E00E94690D8B019C01809114
:100A30002F0590913005A0913105B0913205080F36
:100A4000191F2A1F3B1F602F712F822F932F1F9179
:100A50000F9108952F923F924F925F926F927F92E3
:100A60008F929F92AF92BF92CF92DF92EF92FF92BE
:100A70000F931F93CF93DF93CDB7DEB72D970FB6AC
:100A8000F894DEBF0FBECDBFB82E4B0180912B0571
:100A900090912C05A0912D05B0912E0588879987FE
:100AA000AA87BB8788E193E0A82E9F83DC011B9671
:100AB000BE83AD831B010894211C311C6885798598
:100AC0008A859B850E94080569837A838B839C8332
:100AD00080910503882309F4C4C0442455243201BD
:100AE00089819A81840D951D0E94BD018091DF024C
:100AF0009091E002009709F4A4C0CA2CDF800D8118
:100B00001E81EE24FF24DD86CC86CC84DD84F601B4
:100B100080818823A9F4F1E0BF1691F40E949B071D
:100B20008EE292E00E94DB078FEF9FE7A6E1815003
:100B30009040A040E1F700C00000CC24DD24A7C015
:100B40000E949B07D6018C91853E09F467C0F8018D
:100B500090819F3009F462C0F1E0BF1609F05EC0D9
:100B6000D4019C91891709F44FC058C02C853D854C
:100B700091918D91981709F04FC00E171F07C1F77B
:100B800089819A81AB81BC81480E591E6A1E7B1EE9
:100B90004092FD025092FE026092FF0270920003AA
:100BA000C701A0E0B0E08093F3029093F402A09319
:100BB000F502B093F602D60154968D919C9155970B
:100BC000A0E0B0E0DC0199278827F601228D338D63
:100BD000A90160E070E0842B952BA62BB72B8093A6
:100BE000100390931103A0931203B0931303848D09
:100BF000958DA68DB78D80938C0590938D05A093D0
:100C00008E05B0938F0543C0F6013196D101E017F0
:100C1000F10709F0ABCF02C03D872C8720E230E01E
:100C2000E20EF31E8C859D8580969D878C87005EE5
:100C30001F4F8091DF029091E002E816F90608F458
:100C400064CF0894411C511C611C711C80910503E8
:100C500090E0A0E0B0E0481659066A067B0608F46A
:100C60003FCF88859985AA85BB850196A11DB11DB9
:100C700088879987AA87BB87873FEFEF9E07EFEFAB
:100C8000AE07EFE0BE0708F419CFCC24DD248C2D8D
:100C90009D2D2D960FB6F894DEBF0FBECDBFDF9110
:100CA000CF911F910F91FF90EF90DF90CF90BF9069
:100CB000AF909F908F907F906F905F904F903F90FC
:100CC0002F9008950F931F93CF93DF93EB01CB01E8
:100CD0000E94700481E0BE010E942A058C01CBE9CC
:100CE000D7E0FE0119958DE392E00E94DB078FEFBC
:100CF0009FEFACE281509040A040E1F700C00000BF
:100D0000FE011995D80154968D919C915597A0E0BC
:100D1000B0E0DC0199278827F801228D338DA901E5
:100D200060E070E0842B952BA62BB72B8093E70215
:100D30009093E802A093E902B093EA02848D958D26
:100D4000A68DB78D80938C0590938D05A0938E050D
:100D5000B0938F051092E1021092E2021092E3022A
:100D60001092E40281E0DF91CF911F910F910895DD
:100D7000CF93DF936091E7027091E8028091E902DE
:100D80009091EA020E940805DC01CB018093F702F2
:100D90009093F802A093F902B093FA02C7EFD2E061
:100DA0008091050390E001974091E1025091E202A9
:100DB0006091E3027091E402032E39E07695679525
:100DC000579547953A95D1F7302D4823592350939D
:100DD00037054093360588819981840F951F0E94BD
:100DE0000A020E949B078091DF029091E002A0E03E
:100DF000B0E04091E1025091E2026091E302709113
:100E0000E402840F951FA61FB71F8093E102909301
:100E1000E202A093E302B093E40240918C0550916A
:100E20008D0560918E0570918F05481759076A07E7
:100E30007B0708F0B5CF81E0DF91CF91089587B1AE
:100E4000876F87B988B1887088B9089586E69EE073
:100E50000197F1F7000040984198429840984198D6
:100E600042984298089586E69EE00197F1F70000C7
:100E70004098419880E388B9429AEFEFF7E43197C0
:100E8000F1F700C000004298E6E6FEE03197F1F786
:100E900000004098419888B9429AEFEFF7E4319703
:100EA000F1F700C000004298E6E6FEE03197F1F766
:100EB00000004098419888B9429A8FEF97E40197D3
:100EC000F1F700C000004298E6E6FEE03197F1F746
:100ED00000004098419880E288B9429A8FEF97E4E9
:100EE0000197F1F700C000004298089598B19F70F3
:100EF00098B998B1282F207F922B98B940984198A3
:100F0000429AEFEFF7E43197F1F700C00000429802
:100F100098B19F7098B998B18295807F892B88B9D4
:100F200040984198429A8FEF97E40197F1F700C0FB
:100F300000004298089581E00E94760708950E947B
:100F4000330786E69EE00197F1F7000088E20E94F1
:100F5000760781E00E94760786E00E9476078EE0A1
:100F60000E94760780E80E947607089598B19F70E6
:100F700098B998B1282F207F922B98B9409A419820
:100F8000429AEFEFF7E43197F1F700C00000429882
:100F900098B19F7098B998B18295807F892B88B954
:100FA000409A4198429A8FEF97E40197F1F700C079
:100FB000000042980895CF93DF93EC018881882345
:100FC00031F021960E94B60789918823D9F7DF91E5
:100FD000CF91089580E80E9476070895823079F0D5
:100FE000833018F48130C9F405C0833069F084304F
:100FF000A1F40FC0862F81580E9476070895862F8E
:1010000081540E9476070895862F8D560E94760798
:101010000895862F8D520E94760708950F931F938F
:10102000CF93DF938A01E901882311F0662319F435
:101030000E94EA0702C00E94EE07C530D10571F494
:10104000C80160E177E20E94880DCB01C0969093C1
:10105000F2028093F1020E94B60703C0C430D105AA
:10106000B9F4C80168EE73E00E94880DCB0170935B
:10107000FC026093FB026AE070E00E94880DC0965B
:1010800090933B0580933A050E94B60781E001C02A
:1010900080E0C330D10511F08130B1F4C80164E6BD
:1010A00070E00E94880DCB017093FC026093FB02FC
:1010B0006AE070E00E94880DC0969093340580939A
:1010C00033050E94B60781E0C230D10511F08130AE
:1010D000B1F42AE030E0C801B9010E94880DCB01CB
:1010E0007093FC026093FB02B9010E94880DC096C8
:1010F00090932305809322050E94B60781E0C130BA
:10110000D10511F0813061F4C8016AE070E00E94FD
:10111000880DC09690933905809338050E94B607D4
:10112000C630D1051CF085E40E94B607DF91CF914F
:101130001F910F9108953B9A4398089556985E9A8F
:101140000895E1E2F1E010828FEF8093250191E0B4
:1011500090932401109229018093280110922B0171
:1011600080932A0110922D0180932C0189EA8093AB
:1011700020018BE080830895E1EAF0E0108289EF9E
:101180008093A50083EB8093A4001092A900109295
:10119000A8001092AB001092AA001092AD0010921D
:1011A000AC001092A7001092A6001092A00010921E
:1011B000A20083E080830895259A2D9A08958DB129
:1011C0008DB90895269A2E9A089510928900682F55
:1011D00070E080E090E00E94780C2BE734E14EEE66
:1011E0005FE30E94E40B20E030E04CE052E40E9418
:1011F000800B0E944C0C60938800089510928B0025
:10120000682F70E080E090E00E94780C2BE734E1DA
:101210004EEE5FE30E94E40B20E030E04CE052E44D
:101220000E94800B0E944C0C60938A00089583E01A
:10123000809389008FEF80938800089583E08093E6
:101240008B008FEF80938A0008958AE50E94FE0844
:1012500088E70E94E5080895E1E8F0E010828CEF4D
:101260008093850081E08093840093E090938900CF
:101270008FEF8093880090938B0080938A009093E7
:101280008D0080938C0090938700809386008BEA7A
:1012900080938000109282008CE0808308954E9BA2
:1012A00005C01092D4021092D302089581E090E01C
:1012B0009093D4028093D30287E492E00E94AF001F
:1012C00089E492E00E94AF00089581B111B882B123
:1012D0008FEF82B90895E7E0F1E080811082E8E0C5
:1012E000F1E080818FEF80830895CF92DF92FF92AB
:1012F0000F931F93CF93DF93CDB7DEB7C456D04083
:101300000FB6F894DEBF0FBECDBF8C016B01F42E7B
:10131000BE016F5F7F4F84E6FB0111928A95E9F76A
:10132000F801EE0FFF1FE955FD4F808191814AE0E2
:1013300050E00E94D90DF0E5FF1691F58BE492E0A4
:101340000E94AF00F801E156FD4F8081893551F4CC
:10135000FE01319601900020E9F7319783E290E099
:10136000918380838E010F5F1F4FC801B6010E94D9
:10137000BE0D0E94C90D0E94AF0089E492E00E9458
:10138000AF00D8010D900020E9F71197E2E5F2E0F7
:1013900089E001900D928150E1F70E949B0731C0D6
:1013A0008BE592E00E94AF00F801E156FD4F80818D
:1013B000893551F4FE01319601900020E9F731970B
:1013C00083E290E0918380838E010F5F1F4FC801FD
:1013D000B6010E94BE0D0E94C90D0E94AF0089E4B3
:1013E00092E00E94AF00D8010D900020E9F711971C
:1013F000E4E6F2E089E001900D928150E1F70E946D
:101400009B07CC59DF4F0FB6F894DEBF0FBECDBFA0
:10141000DF91CF911F910F91FF90DF90CF900895B2
:101420000F931F938091A4009091A5004091D10249
:101430005091D202662757FD6095762FBA01552745
:101440004427A0E0B0E08A019B01080F191F2A1F62
:101450003B1FC901B8010E947A0C20E030E041E650
:101460005BE40E94E40B20E030E040E752E40E949D
:10147000060D0E944C0C6093C0021F910F910895BD
:101480001F920F920FB60F9211248F939F9380910A
:10149000D1029091D20201969093D2028093D10210
:1014A0009F918F910F900FBE0F901F901895F894F9
:1014B0000E941F070E9465090E949E080E949500D5
:1014C0000E94BE000E94C5000E94DC080E942E01FE
:1014D0000E94A1080E94BC080E942C0981E0809310
:1014E0007200789408950E94570A0E949F070E94F4
:1014F00033070E94570A0E949B0781E065E00E9423
:10150000EE07CDE6D2E00E944F09CE010E94DB0734
:101510008091D3029091D40281309105A1F70E946D
:101520009B0782E792E00E94DB078FEF9FEFA8E026
:1015300081509040A040E1F700C00000C8E7D2E031
:101540000CE712E00F2EFEE7EF2EF2E0FF2EF02D5B
:101550000F2EF0E8CF2EF2E0DF2EF02D0F2EF2E866
:10156000AF2EF2E0BF2EF02D0F2EF4E88F2EF2E01A
:101570009F2EF02D0F2EF6E86F2EF2E07F2EF02D2D
:101580000F2EF8E84F2EF2E05F2EF02D0F2EFAE826
:101590002F2EF2E03F2EF02D80B18E3F29F40E94D5
:1015A0009B07CE010E94DB0780B18D3F49F40E946A
:1015B0009B0781E061E00E94EE07C8010E94DB0703
:1015C00080B18B3F29F40E949B07C7010E94DB0773
:1015D00080B1873F29F40E949B07C6010E94DB0768
:1015E00080B18F3E29F40E949B07C5010E94DB0752
:1015F00080B18F3D29F40E949B07C4010E94DB0744
:1016000080B18F3B29F40E949B07C3010E94DB0736
:1016100080B18F3729F40E949B07C2010E94DB072B
:101620008091060190E08F3F910531F0AFEFBFE868
:101630001197F1F700C00000809106018E3F49F438
:101640000E949B0781E061E00E94EE07C1010E94B9
:10165000DB07809106018D3F51F40E949B0781E0DA
:1016600061E00E94EE078DE892E00E94DB07809126
:1016700006018B3F51F40E949B0781E061E00E94CC
:10168000EE0780E992E00E94DB07809106018C3F23
:1016900051F40E949B0781E061E00E94EE0783E91C
:1016A00092E00E94DB0780910601893F51F40E947D
:1016B0009B0781E061E00E94EE0786E992E00E94CC
:1016C000DB07809106018A3F51F40E949B0781E06D
:1016D00061E00E94EE0789E992E00E94DB078091B9
:1016E0000601883F09F058CF0E949B0781E061E026
:1016F0000E94EE078CE992E00E94DB074DCF505824
:10170000BB27AA270ED048C139D130F03ED120F0F6
:1017100031F49F3F11F41EF42EC10EF4E095E7FB67
:1017200024C1E92F4AD180F3BA17620773078407EF
:10173000950718F071F49EF562C10EF4E0950B2E3A
:10174000BA2FA02D0B01B90190010C01CA01A00113
:101750001124FF27591B99F0593F50F4503E68F16E
:101760001A16F040A22F232F342F4427585FF3CFAF
:10177000469537952795A795F0405395C9F77EF480
:101780001F16BA0B620B730B840BBAF09150A1F0C9
:10179000FF0FBB1F661F771F881FC2F70EC0BA0F4F
:1017A000621F731F841F48F4879577956795B795D7
:1017B000F7959E3F08F0B3CF9395880F08F09927CF
:1017C000EE0F9795879508950CD0E6C0DED040F0D7
:1017D000D5D030F021F45F3F19F0C7C0511110C1CE
:1017E000CAC0EBD098F39923C9F35523B1F3951BE5
:1017F000550BBB27AA2762177307840738F09F5F32
:101800005F4F220F331F441FAA1FA9F333D00E2EA0
:101810003AF0E0E830D091505040E695001CCAF70D
:1018200029D0FE2F27D0660F771F881FBB1F2617D2
:1018300037074807AB07B0E809F0BB0B802DBF01A5
:10184000FF2793585F4F2AF09E3F510568F08DC0E7
:10185000D7C05F3FECF3983EDCF3869577956795AC
:10186000B795F7959F5FC9F7880F911D9695879556
:1018700097F90895E1E0660F771F881FBB1F621775
:1018800073078407BA0720F0621B730B840BBA0B33
:10189000EE1F88F7E095089598D088F09F5790F054
:1018A000B92F9927B751A0F0D1F0660F771F881F85
:1018B000991F1AF0BA95C9F712C0B13081F09FD0C4
:1018C000B1E008959CC0672F782F8827B85F39F062
:1018D000B93FCCF3869577956795B395D9F73EF4E4
:1018E00090958095709561957F4F8F4F9F4F08958C
:1018F000E89409C097FB3EF49095809570956195AA
:101900007F4F8F4F9F4F9923A9F0F92F96E9BB275F
:101910009395F695879577956795B795F111F8CFDB
:10192000FAF4BB0F11F460FF1BC06F5F7F4F8F4F46
:101930009F4F16C0882311F096E911C0772321F03C
:101940009EE8872F762F05C0662371F096E8862FD4
:1019500070E060E02AF09A95660F771F881FDAF72B
:10196000880F9695879597F9089597F99F6780E86E
:1019700070E060E008959FEF80EC089500240A94E1
:101980001616170618060906089500240A9412165A
:101990001306140605060895092E0394000C11F48D
:1019A000882352F0BB0F40F4BF2B11F460FF04C03A
:1019B0006F5F7F4F8F4F9F4F089557FD9058440F93
:1019C000551F59F05F3F71F04795880F97FB991F9E
:1019D00061F09F3F79F0879508951216130614065B
:1019E000551FF2CF4695F1DF08C0161617061806E8
:1019F000991FF1CF86957105610508940895E894C3
:101A0000BB2766277727CB0197F908950BD0C4CF62
:101A1000B5DF28F0BADF18F0952309F0A6CFABCFD9
:101A20001124EECFCADFA0F3959FD1F3950F50E0BC
:101A3000551F629FF001729FBB27F00DB11D639F80
:101A4000AA27F00DB11DAA1F649F6627B00DA11D26
:101A5000661F829F2227B00DA11D621F739FB00DCC
:101A6000A11D621F839FA00D611D221F749F33273C
:101A7000A00D611D231F849F600D211D822F762FD5
:101A80006A2F11249F5750408AF0E1F088234AF0D2
:101A9000EE0FFF1FBB1F661F771F881F915050401E
:101AA000A9F79E3F510570F060CFAACF5F3FECF3DE
:101AB000983EDCF3869577956795B795F795E7950A
:101AC0009F5FC1F7FE2B880F911D9695879597F91B
:101AD0000895629FD001739FF001829FE00DF11D78
:101AE000649FE00DF11D929FF00D839FF00D749F98
:101AF000F00D659FF00D9927729FB00DE11DF91F44
:101B0000639FB00DE11DF91FBD01CF0111240895A0
:101B1000AA1BBB1B51E107C0AA1FBB1FA617B70713
:101B200010F0A61BB70B881F991F5A95A9F780952F
:101B30009095BC01CD010895A1E21A2EAA1BBB1BF2
:101B4000FD010DC0AA1FBB1FEE1FFF1FA217B30789
:101B5000E407F50720F0A21BB30BE40BF50B661F9F
:101B6000771F881F991F1A9469F760957095809563
:101B700090959B01AC01BD01CF010895FB01DC01F3
:101B80000D900020E9F7119701900D920020E1F7E8
:101B90000895DC01FC01672F71917723E1F73297FB
:101BA00004C07C916D9370836291AE17BF07C8F338
:101BB0000895FB019F01E8944230C4F04532B4F42B
:101BC0004A3029F497FB1EF4909581959F4F642F1E
:101BD00077270E94880D805D8A330CF0895D8193A0
:101BE000CB010097A1F716F45DE251931082C90171
:081BF0000C94C90DF894FFCF1D
:101BF800636C7573746572733A2034380066735F6A
:101C0800696E666F20636F727265637400696E76C1
:101C1800616C69642066696C656E616D65006669F2
:101C28006C65206E6F7420657869737400737563D2
:101C38006365737321210023000A005069616E6F88
:101C48000A005F5069612E776176005472756D7075
:101C580065740A005F5472752E77617600426F6F63
:101C68007400436865636B00454E440043004400BC
:101C780045004600470041004200435400445400D8
:101C880045540046540047540041540042540059FA
:101C98004E4E4E594E4E4E050004000300060005F8
:081CA800000600050004000025
:00000001FF
